:020000040800F2
:1000000000400220ED5E01087D5F0108BD4301084C
:1000100000000000000000000000000000000000E0
:10002000000000000000000000000000739F0108B5
:10003000000000000000000081A00108A9430108A1
:100040007D5F01087D5F01087D5F01087D5F01081C
:100050007D5F01087D5F01087D5F01087D5F01080C
:100060007D5F01081D4801083D48010891480108CD
:100070007D5F01087D5F01087D5F01087D5F0108EC
:100080007D5F01087D5F01087D5F01087D5F0108DC
:100090007D5F01087D5F01087D5F01087D5F0108CC
:1000A0007D5F01087D5F01087D5F010871440108E3
:0C00B0001D450108C94501087D5F0108DD
:1000C00010B5064C2378002B07D1054B002B02D02E
:1000D000044800E000BF0123237010BD7809002010
:1000E00000000000DC950208044B10B5002B03D083
:1000F0000349044800E000BF10BDC04600000000F6
:100100007C090020DC95020802780B78002A03D0D5
:10011000013001319A42F7D0D01A70470023C25CF7
:100120000133002AFBD1581E7047000002B471460B
:1001300049084900095C49008E4402BC7047C0462A
:1001400003B47146490840004900095A49008E44E9
:1001500003BC7047002243088B4274D303098B42CF
:100160005FD3030A8B4244D3030B8B4228D3030C87
:100170008B420DD3FF22090212BA030C8B4202D329
:100180001212090265D0030B8B4219D300E0090A51
:10019000C30B8B4201D3CB03C01A5241830B8B425A
:1001A00001D38B03C01A5241430B8B4201D34B0343
:1001B000C01A5241030B8B4201D30B03C01A5241A8
:1001C000C30A8B4201D3CB02C01A5241830A8B422D
:1001D00001D38B02C01A5241430A8B4201D34B0216
:1001E000C01A5241030A8B4201D30B02C01A52417A
:1001F000CDD2C3098B4201D3CB01C01A524183092E
:100200008B4201D38B01C01A524143098B4201D367
:100210004B01C01A524103098B4201D30B01C01A92
:100220005241C3088B4201D3CB00C01A524183080C
:100230008B4201D38B00C01A524143088B4201D339
:100240004B00C01A5241411A00D201465241104699
:100250007047FFE701B5002000F0F0F802BDC0468E
:100260000029F7D076E7704703460B437FD400227E
:1002700043088B4274D303098B425FD3030A8B423A
:1002800044D3030B8B4228D3030C8B420DD3FF22A4
:10029000090212BA030C8B4202D31212090265D072
:1002A000030B8B4219D300E0090AC30B8B4201D325
:1002B000CB03C01A5241830B8B4201D38B03C01A6C
:1002C0005241430B8B4201D34B03C01A5241030BE3
:1002D0008B4201D30B03C01A5241C30A8B4201D394
:1002E000CB02C01A5241830A8B4201D38B02C01A3F
:1002F0005241430A8B4201D34B02C01A5241030AB6
:100300008B4201D30B02C01A5241CDD2C3098B429A
:1003100001D3CB01C01A524183098B4201D38B0117
:10032000C01A524143098B4201D34B01C01A5241BA
:1003300003098B4201D30B01C01A5241C3088B42FF
:1003400001D3CB00C01A524183088B4201D38B00EA
:10035000C01A524143088B4201D34B00C01A52418C
:10036000411A00D201465241104670475DE0CA0F63
:1003700000D04942031000D34042534000229C4623
:1003800003098B422DD3030A8B4212D3FC2289012D
:1003900012BA030A8B420CD3890192118B4208D303
:1003A000890192118B4204D389013AD0921100E065
:1003B0008909C3098B4201D3CB01C01A5241830979
:1003C0008B4201D38B01C01A524143098B4201D3A6
:1003D0004B01C01A524103098B4201D30B01C01AD1
:1003E0005241C3088B4201D3CB00C01A524183084B
:1003F0008B4201D38B00C01A5241D9D243088B42A1
:1004000001D34B00C01A5241411A00D20146634643
:1004100052415B10104601D34042002B00D54942A7
:10042000704763465B1000D3404201B5002000F0E6
:1004300005F802BD0029F8D016E770477047C0469E
:100440008446100062468C461900634600E0C046B0
:100450001FB501F00BFD002801D40021C8421FBDCB
:1004600010B501F04BFC4042013010BD10B501F059
:10047000FDFC002801DB002010BD012010BDC0469E
:1004800010B501F0F3FC002801DD002010BD0120B3
:1004900010BDC04610B501F075FC002801DC00203D
:1004A00010BD012010BDC04610B501F06BFC002846
:1004B00001DA002010BD012010BDC04684460800AE
:1004C0006146FFE71FB500F04BFA002801D4002178
:1004D000C8421FBD10B500F0CBF94042013010BD3D
:1004E00010B500F03DFA002801DB002010BD01200E
:1004F00010BDC04610B500F033FA002801DD002021
:1005000010BD012010BDC04610B500F0D9F900287B
:1005100001DC002010BD012010BDC04610B500F068
:10052000CFF9002801DA002010BD012010BDC0461F
:10053000002B11D1002A0FD1002900D1002802D0B0
:100540000021C943080007B4024802A140180290E4
:1005500003BDC046E9FEFFFF03B4684601B502983B
:1005600000F0BAF8019B9E4602B00CBC7047C04632
:10057000F0B5CE469946030C9C46130447461B0C27
:100580001D000E0061460404240C80B50700100C09
:100590004B436543414360432C0CC01824188C46E0
:1005A000A34203D980235B029846C4444946794359
:1005B0005643230C2D042D0C89196344240460191F
:1005C000C918C0BCB946B046F0BDC0469E2110B5A2
:1005D000C905041CFFF7A2FF002803D1201C00F06E
:1005E000EFFC10BD9E21201CC90500F045FB00F06A
:1005F000E7FC80231B069C466044F2E770B50022AE
:100600000C4B04000D00FFF74FFF002804D1200021
:10061000290002F023FB70BD064B002220002900B8
:1006200001F05EFF02F01AFB80231B069C4660442B
:10063000F1E7C0460000E04170B50022002304004D
:100640000D00FFF713FF002808D12000290000F05B
:100650000FF802000B001000190070BD80231B066C
:10066000E918200000F004F8002342428B41F2E731
:1006700070B500220B4B0D00040001F069FCFFF780
:10068000BDFF060002F054FB0022074B01F060FCA6
:1006900002000B002000290001F022FFFFF7AEFF4F
:1006A000310070BD0000F03D0000F04170B5060063
:1006B000080002F00FFB0022064B01F049FC0D0080
:1006C0000400300002F034FB2B00220000F098FC04
:1006D00070BDC0460000F041F0B557464E46454655
:1006E000DE46E0B504000D009246994683B08B4289
:1006F00030D82DD04946504602F028FC290006008B
:10070000200002F023FC331A9846203B34D49B4649
:1007100053465A46934042461F00534693401E009C
:10072000AF423BD8AF4200D179E05B46A41BBD414C
:10073000002B00DA76E000220023009201930123CF
:100740005A4693400193012342469340009329E087
:100750008242CFD900220023009201930C9B002BF0
:1007600001D01C605D600098019903B0F0BCBB46ED
:10077000B246A946A046F0BD42469B4620239B1A9E
:100780005246DA40414613004A468A401700424624
:100790001F43534693401E00AF42C3D9002200239B
:1007A000009201934346002BD8D0FB0772081A43EE
:1007B00046467B080EE0AB4201D1A2420CD8A41AF7
:1007C0009D41012024196D410021013E24184D4115
:1007D000002E06D0AB42EED9013E24196D41002E09
:1007E000F8D1009801995B4600196941002B24DB80
:1007F0002B005A464446D3402A00E2401C005B4688
:100800001500002B2ADB26009E40330026004746B9
:10081000BE403200801A9941009001919EE7A342A8
:10082000BCD882E74246202300219B1A0022009177
:1008300001920122DA40019285E7424620239B1A69
:100840002A0046469A402300F340444613432A00B8
:10085000E2401C005B461500002BD4DA42462F0014
:100860002023260097409B1ADE403B003343CDE710
:1008700070B542004E024C0045026D0A120EC30FC5
:10088000760A240EC90FFF2A10D0FF2C0CD00120AD
:10089000A2420AD1B54208D18B420FD0002A04D11E
:1008A0002800431E984100E0012070BD0120FF2C6C
:1008B000FBD13543F9D14B401800F6E70020F4E7AF
:1008C00030B5420044024D02C30F4800640A120EC4
:1008D0006D0A000EC90FFF2A19D0FF280BD0002A7D
:1008E0001ED100280BD1002D27D0002C34D1002997
:1008F0002FD0080030BD002D28D1002A01D1002CB6
:10090000F5D08B4207D1002B23D01800F2E7002C42
:100910001CD1FF2814D0581E022318400138E9E7E3
:100920000028F8D08B42F6D18242F4DCEBDBAC42FB
:10093000F1D80020AC42DDD2E5E7002CDAD0EAE7BE
:10094000002D03D18B42E6D10020D3E702204042A4
:10095000D0E701204042CDE78B42E8D0DBE7C0463C
:1009600030B5420044024D02C30F4800640A120E23
:100970006D0A000EC90FFF2A1AD0FF280ED0002AD8
:100980001ED100280ED1002D2AD0002C0CD08B4275
:100990001DD0581E02231840013810E0002D0DD143
:1009A000002A20D1002C1ED1002923D0080006E007
:1009B000002C03D1FF28ECD1002D17D0022030BD30
:1009C0000028E6D08B42E4D18242E2DC04DBAC4278
:1009D000DFD80020AC42F2D2002B0BD01800EEE79B
:1009E000002CECD0D5E78B42D3D1F5E700208B4229
:1009F000E5D0CEE701204042E1E7C046F0B54F46E2
:100A00004646D64643025B0A4500C0B599460F1CD0
:100A10002D0EC60F002D00D188E0FF2D00D18DE0F6
:100A20008022DB00D2041A430023914698469A465E
:100A30007F3D7C027B00640A1B0EFF0F002B68D0F9
:100A4000FF2B21D08022E400D204144342467F3B96
:100A50005B1900215D1C0A2A2EDC7E404246022AD8
:100A600023DC013A012A00D9BDE002296ED0012918
:100A70002CD100200022C005F60710433043E0BC13
:100A8000BA46B146A846F0BD2B00FF33002C65D016
:100A90000322414611433200013588467A40FF3532
:100AA0000A2900DDD8E016000321404601228240D9
:100AB000A620C000024220D05346022B46D0032B72
:100AC00000D1BBE051464C460129D2D02B007F33E8
:100AD000002B70DD620704D00F222240042A00D0D0
:100AE0000434220103D5634B1C402B008033FE2BC2
:100AF0002CDCA201520AD8B2BDE79020800002424D
:100B000027D1B938FF3810426DD03E00A1468A4641
:100B1000D2E7002C41D1012342461A4390462B00D4
:100B2000424601215D1C0A2A97DDC5E7002B26D12C
:100B300004239846033B00259A467AE7002B18D1F8
:100B400008239846063BFF259A4672E7FF200022BD
:100B500091E780220026FF20D2038CE74146022243
:100B6000013511438846FF350A29A5DC02217E4064
:100B700074E70C239846093BFF259A4659E718006D
:100B800002F0C6F94A46431F76259A4000236D427B
:100B9000914698469A462D1A4BE7200002F0B8F984
:100BA0004246431F9C402B1A763B00215D1C0A2ABB
:100BB00000DC52E780E70122D31A1B2B00DD58E747
:100BC0009E352200AC40DA40631E9C41224353070D
:100BD00004D00F231340042B00D00432530137D527
:100BE0000120002247E7210C4A462404240C270058
:100BF000100C1204120C44435743484351433A0C1F
:100C000009195218944203D9802149028C46604444
:100C10003F0411043F0CC9198C01671EBC41120C22
:100C2000890E12180C439201144312010ED50123B0
:100C300062081C40144349E73E00A14680224B460F
:100C4000D2031A435202FF20520A14E71D003DE767
:100C500092010020520A0EE70F29EDD180224B4667
:100C6000D2031342EAD01442E8D13E00FF202243CF
:100C700001E7C046FFFFFFF7F8B54746CE464E02F4
:100C800043024500720AC40F480080B594465F0ACB
:100C90002D0E9B09000EC90FB609FF2824D0012292
:100CA00051402A1A8C420FD0002A00DC6AE1002849
:100CB00035D1002E00D1A2E0511E012A00D124E13D
:100CC000FF2A21D00A002FE0002A00DC67E100287B
:100CD0005ED0FF2D18D08021C9040E431B2A00DCF2
:100CE00076E02A00013332E02A00FF3A9146002ED6
:100CF00042D08C4255D04A46002A00D19CE0002DBB
:100D000000D177E00C003300DB08002B00D16EE04F
:100D10008022D20313435B02FF205B0A24E0FF2DF5
:100D2000F2D08021C9040E4301211B2A08DC3100C6
:100D30002020D140821A96403200501E8241114339
:100D40005B1A5A0160D407212A00194057D00F219D
:100D50001940042900D00433590150D5501CFE2AF3
:100D600045D09B01C0B25B0AC0051843E40720438D
:100D7000C0BCB946B046F8BD012251408C42BAD140
:100D80004A46002A10D0002D00D198E00023BBE78E
:100D9000002E34D0511E012A6ED0FF2AB4D00A0092
:100DA0009CE7002A00D088E0FE206A1C104200D098
:100DB00092E0002D00D0A4E0002B00D1CBE0002E6B
:100DC00000D0CAE00022DB085B025B0AD0B2CBE7AE
:100DD00031002020D140821A96403200501E8241BC
:100DE0000A439B185A01AED56A1CFE2D4AD1FF203A
:100DF0000023B9E7FF22002B4BD10C003300DB08A6
:100E0000FF2A00D181E7DFE79F01BF09380002F028
:100E10007FF805388740854221DC3B002021421BBA
:100E20000132D3408A1A97407A1E974100223B43F1
:100E3000590700D08BE78FE7FE206A1C104212D1C1
:100E4000002D52D1002B7CD0002EBBD09A1B50011C
:100E500000D48BE001240022F31A0C40E8E7564B43
:100E60002A1A3B40E4E79F1B7A0146D4002FCDD1DC
:100E700000240020002377E79B1901250132590146
:100E800000D460E701214D4819405B0803400B4343
:100E9000CEE7571E012A5AD00C00FF2A33D0012278
:100EA0001B2F07DC2021C91B1A008B40FA40591E5A
:100EB0008B411A430500B31A43E7002D23D1FF22CB
:100EC000002B9BD0511E012AD6D0FF2A1BD01B29F4
:100ED0002CDD0200731C3AE7FF2A88D09B195B08BF
:100EE000590700D033E7DB086EE7002B10D1002E46
:100EF00043D0012433000C4006E70124F71A0C40CC
:100F000084E7002B04D13300FEE601259B1B18E784
:100F1000002E00D1F8E68022D203974204D39445F4
:100F200002D2012433000C40DB08F1E61A00202530
:100F3000CA40691A8B40591E8B41134305009B1907
:100F400050E7002E94D0012433000C403AE70C0007
:100F50000125F31AF5E6330034E79B190022590105
:100F6000C1D5154A1340DB0801222DE7002A00D124
:100F70007EE713000022DB0826E780230024FF2001
:100F8000DB03F1E6002A00D156E7471B3A00002DAB
:100F900000D130E78022D2040C0013437FE7002AFF
:100FA00000D101E7411B002D01D10A0088E7802212
:100FB000D20413438BE7C046FFFFFFFBFFFFFF7D1B
:100FC00041024200C30F490A0020120E7E2A03DDAF
:100FD0009D2A02DD094A98187047802000040143C9
:100FE000952A07DC9620821AD1404842002BF3D183
:100FF0000800F1E7963A9140F7E7C046FFFFFF7F10
:10100000F0B557464E464546DE46E0B583B0009003
:1010100001910C034F00CE0F610A009C1D03640F69
:101020000C43009900920193C80059004B0D99465A
:10103000009A019B6D0AD90F530F2B439A46009BD0
:101040007F0DDA0094464A46B046BA1A8E4200D165
:10105000B0E0002A00DC78E04946002900D1E9E050
:10106000C9498F4200D195E10125382A16DC80213B
:10107000534609040B439A461F2A00DDE7E120216D
:1010800055468B1A61469D40D1400D4361469940BB
:101090004B1E99415346D3400D43E41A451BA842C9
:1010A00080414042241A230200D40FE16402640A02
:1010B000002C00D139E1200001F02AFF0300083B99
:1010C00020212800CA1AD0409C4002009D402243A3
:1010D0009F4200DD73E1D81B0130091A2C008D40BE
:1010E000C4406B1E9D411300C2408B402543002726
:1010F00014001D436B0709D00F232B40042B05D090
:101100002B1DAB42AD416D4264191D00230200D47A
:101110002DE19D4A0137974200D1D3E046469B49D5
:10112000ED0821404A072A437C054D022D0B640D32
:1011300024052C43F60734431000210003B0F0BC13
:10114000BB46B246A946A046F0BD002A00D184E0C5
:101150004A46D21B002F00D06DE12500054300D187
:1011600027E1561E012A00D13BE2874DAA4200D159
:101170006AE20125382E12DC32001F2A00DDF8E178
:1011800020262500B61A07005346B040D440B5408B
:10119000D740461EB0411B1B9A463D43054362465D
:1011A000551BAC459241534652420E004F4688466D
:1011B0009C1A78E7002A00DC8EE04946002975D1A8
:1011C00061465346194300D1F6E0511E012A00D171
:1011D00091E16D4DAA4200D1DCE00125382914DCF3
:1011E0000A001F2A00DDA2E120215346891A8B4004
:1011F0001D006346D3401D4363468B4019004B1EC0
:1012000099415346D3400D43E4182D18854280413F
:1012100040422418230259D55B4B01379F4251D0DD
:1012200001215A4B6A081C4029400A43E50715432F
:1012300064085FE761465346194300D1BCE0511E84
:10124000012A00D164E1504DAA4200D16AE1012592
:10125000382900DD22E70A000EE74D4A7D1C1542C1
:1012600000D0D0E025006246534605431A43002FC4
:1012700000D037E1002D00D1A8E1002A00D16AE1B9
:101280006346C51A5346E21AA8429B415B42D31AF1
:101290001A0200D403E263461D1AAC45924153463C
:1012A00052421C1B0E008846A41A23E736498F427F
:1012B00070D00125382AA8DC8021534609040B434D
:1012C0009A468EE73C000025002231E707232B4099
:1012D000002B00D010E793E0002A74D04A46D21BBE
:1012E000002F00D1C7E02849894500D185E10125BB
:1012F000382A12DC802109040C431F2A00DDABE1EF
:1013000020212500891A070088408D40D740411EC2
:101310008841D4403D430543A2446544654592411C
:101320005242524414004F4674E7280001F0F0FD89
:10133000030018331F2B00DCC2E62A000838824065
:101340009F4200DDA9E0DB1B581C1F2800DCACE13C
:1013500015001F3BDD40202805D040231B1A9A4072
:10136000531E9A411543072300272B40B0E7ED0891
:10137000054B62072A43E4089F420FD02403250B44
:101380007C05640DD4E6C046FF070000FFFF7FFF29
:10139000FE070000C00862070243E408130023436D
:1013A00000D186E180252D0325432D03C34C2D0B51
:1013B000BEE6604654460E001700C508D8E7C04C8C
:1013C000FF1A144096E6BF4A791C11426BD12200E5
:1013D0000243002F00D0DBE0002A00D12DE162465D
:1013E00053461A4300D1B6E06346C5188542804192
:1013F000544440422418230202D50F00B04B1C4035
:101400003A002800D8E76246851AA842924153461E
:1014100052429146E31A1A004B46D21A13009146E3
:101420001A0254D44A464C462A4300D040E60026CD
:10143000002400257CE6A14DA94500D190E00125BE
:10144000382A00DDABE680252D042C4395E61100FB
:1014500055462039CD40A946202A06D04021534682
:101460008A1A934062461A43944665466B1E9D4114
:101470004B461D4312E62100014300D1C4E0511E3A
:10148000012A00D1FBE08D4DAA4200D1B5E0012533
:10149000382900DD41E70A002FE7894CFF1A144084
:1014A0006207E4086AE7854A914200D1E3E06346B7
:1014B000C218824280412300404253441B18DD077A
:1014C0005C080723520815430F002B4000E76346D2
:1014D0001D1AAC459241534652421C1B0E008846D1
:1014E000A41AE5E5002D00D091E0002A38D180242F
:1014F0000026240356E76346C518854280415444BC
:10150000404224180127230200D4DFE6022787E6A1
:101510006346C51AA842804153464042E41A012757
:10152000241AC0E56207C0080243E40836E7110048
:1015300053462039CB409946202A06D040215346B5
:101540008A1A934062461A43944665466B1E9D4133
:101550004B461D4359E66207C0080243E4080DE705
:1015600053465A076346D80853460E000243DC0828
:1015700014E715002600203DEE40202A03D0402528
:10158000AA1A94402043421E90410500354306E6C6
:10159000002A7CD062465346C0081A4300D1FAE6BE
:1015A000620710438022E4081203144208D0D908CD
:1015B000114205D16346D80853460C005B07184317
:1015C000420FC000C00852070243E7E6002A00D1DC
:1015D0002DE76346D80853465A070E000243DC083D
:1015E000CCE663461D1AAC459241534652421C1B41
:1015F0000E008846A41A013755E56346D9085346BC
:101600005A070A43DC08C9E660465446D4E6C008D7
:10161000002A00D1BFE6620710438022E4081203CB
:101620001442CDD0DD081542CAD16346D8085346CE
:101630005B070E002C001843C2E76346D9085346E7
:101640005A070A43DC0899E66346D80853465A0706
:101650000E000243DC08A1E6110027002039CF402C
:10166000202A03D040218A1A94402043421E9041F0
:1016700005003D4351E60C000025002258E560447A
:1016800060459241544452420500A4183AE753463B
:101690005A076346D90853460A43DC087EE61A0017
:1016A0001C002A4300D0ABE6C1E620210025091A20
:1016B00019E500220025014C3AE5C046FF0700006D
:1016C000FFFF7FFFFE070000F0B5DE4645465746A8
:1016D0004E46E0B587B0009201930B031B0B9B466F
:1016E000CA0F4B00040080465B0D029200D16AE1F4
:1016F000D44A934200D18CE15946420FC9000A43B3
:10170000802109041143C2009046CF4A894692467F
:101710009A44002300240393009E019F3B031B0B6C
:101720009B467B0030005B0DFD0F002B00D128E1B4
:10173000C44A934200D177E15946720FC9000A4367
:101740008021090411438B46BF49F2008C46514663
:101750006344CB1A9A460023029E6E400F2C27D872
:10176000BA49A40009598F46CB464246029E039BC4
:10177000022B16D0032B00D1A6E2012B00D0DFE014
:1017800000220023002490461B052343F607334321
:101790004046190007B0F0BCBB46B246A946A04679
:1017A000F0BD002200249046A64BEDE72E00DFE7B7
:1017B000CB4500D2D4E100D1CFE101235B429C466E
:1017C000444648460027E2445B46150E1B021D4373
:1017D000190C2B04120200951D0C914602910395E1
:1017E000FEF73EFD02006A430B04210C80461943BC
:1017F0008A4209D9009D0123AC465B4261449C4664
:10180000E0448D4200D8FBE1881A0299FEF728FDDA
:10181000039A240442430904240C03000C43A2420B
:1018200006D90099013B8C466444A14200D8E1E10D
:10183000A01A424612041A4393464B4659461B0CC3
:101840001D0004930B0449460904090C0C001B0CF1
:101850005C43120C6B43884651436A43250CAC46EB
:101860005B186344994203D9802149028C46624443
:10187000190C24041B04240C8A181C19904202D34E
:1018800016D1A74214D25B46009D013B4F440593FD
:101890004F459B41AC465B426344C018854200D330
:1018A000A1E1824200D9F6E100D1F1E1059B9B461E
:1018B0003C1BA742BF41009D801A7F42C01B85424E
:1018C00000D1D0E10299FEF7CBFC039A0B0442430E
:1018D000210C070019438A4200D978E1881A02993D
:1018E000FEF7BEFC039A240442430904240C0300BF
:1018F0000C43A24200D95DE14146A41A3A041A43BE
:10190000049D13041B0C594347466B439C46100C23
:1019100047430B0CBC44634468439F4203D9802572
:101920006D02AC4660441F0C09041B04090C3F18EF
:101930005B18BC4200D202E100D1FDE001231A4352
:10194000434B5344002B00DCAEE0510700D098E13C
:101950005946C90106D559463E4B194080238B464E
:10196000DB0053443C498B4200DD1AE75946D2085C
:10197000490711435A465B0554028846240B5B0D08
:1019800002E75A46009B1A4300D17EE05B46002BDB
:1019900000D100E1584601F0BBFA020003000B3A07
:1019A0001D27009EBA1A19005846D64008398840AB
:1019B000320002439346009A8A40284953448A469B
:1019C0009A440023C8E65B460343994656D05B46DB
:1019D000002B00D1CDE0584601F09AFA0B235B4270
:1019E0009C460200844466461D239B1B2600110072
:1019F0005846DE40083988403300034399462300A7
:101A00008B409846164B00249B1A9A46002303935A
:101A100082E65A46024391462AD100229A46022380
:101A200090460824039377E65A46009B1A430D4BD1
:101A30009C46E244002A17D102231C4300239B4604
:101A4000023389E6FF07000001FCFFFF10CA02080D
:101A5000FF030000FFFFFFFEFE070000F30300008E
:101A60000DFCFFFF01F8FFFF032332001C4373E668
:101A70009A460323D9460C2403934DE60023984647
:101A80009A4601330424039346E601231C430023B2
:101A90009B46013360E60023802498460026924B43
:101AA000240371E6012252420121C91A382900DDBE
:101AB00066E61F2900DCABE01F204042C31A5846EF
:101AC000D8400300202904D0584688495144884012
:101AD0000243511E8A411A43072319000024114072
:101AE00013420CD00F231340042B00D1F9E0111D39
:101AF00091429B410A005B4259075B021C0BD208D2
:101B00000A43904600233FE680244B4624032342A9
:101B100009D05B46234206D11C4324032E00904685
:101B2000714B240B30E680244B4624031C432403D2
:101B3000029E6D4B240B27E6002B00D100E7009896
:101B4000511E84466444844200D284E0BC4200D2E8
:101B5000AEE000D1C1E00A00F0E6424500D92CE633
:101B60004B46DC07580843465B081C434346DF07E7
:101B70002AE601F0CDF915239C4684440200634611
:101B800020321C2B00DC2EE72300083883409946C6
:101B90000023984636E701F0BBF902000300153236
:101BA00020331C2A00DCFBE6009908388140002223
:101BB0008B4602E70099013B8C466444A14200D960
:101BC0009AE6A24200D897E6831E644494E6AC46A7
:101BD0006144013F8D4200D980E68A4200D87DE60B
:101BE000871E61447AE6854200D05FE6B94500D998
:101BF0005CE656E6A24200D81AE6831E644417E665
:101C00008A4200D800E6AC46831E98466144FBE554
:101C100037481400504482405B4617008340CC4054
:101C20007A1E974123433B431A005B46CB40510742
:101C300009D00F211140042905D0111D9142924174
:101C400052429B180A00190200D455E700220123D2
:101C50000024904698E50A00BC4200D06EE64B4551
:101C600000D06BE66CE6234B234A5344924500DADE
:101C700018E7012149420A1D8A42894149428B44A1
:101C800066E60F211140042900D161E61100F2E758
:101C9000BC4200D80AE602235B429C4600994F44AE
:101CA0004F459B41E3448C465B426344C018FFE5CB
:101CB0004946009D480048458941AC464942614437
:101CC0008146023A6418C7E780245B4624031C431C
:101CD00024039046044B240B56E59945E8D30A00AB
:101CE000BDE7002308E7C046FF0700003E040000F0
:101CF0001E040000FF03000002FCFFFFF0B5574682
:101D0000DE464E464546E0B50D000400E80F83462A
:101D10000903D80F090B824619488C461F03690036
:101D20005E00490D3F0B760D814218D086420FD0E0
:101D30000120B1420DD1BC450BD1944209D1D3450C
:101D40001CD0002905D160462043431E984100E085
:101D50000120F0BCBB46B246A946A046F0BD01201A
:101D60008E42F6D1614639430F0017432743F0D125
:101D70005B465246981A431E9841EAE70020E8E77E
:101D8000FF070000F0B557464E464546DE46E0B533
:101D90000D000F03390B83B00400804601915800F9
:101DA000E90F314F400D8C466E0019038246914673
:101DB000760D090BD80FBE421FD0BA450FD0002EAA
:101DC0002FD15546019E3443002D27D10A433AD0E6
:101DD000002C45D100281AD10120404217E01143C0
:101DE0003BD1002E02D1019F2743F3D0844509D176
:101DF0006346002BF0D0604609E0019F27432CD1B9
:101E0000B24524D063460220013B1840013803B09C
:101E1000F0BCBB46B246A946A046F0BD002CD9D0C6
:101E2000E4E75446002CEDD08445EBD15645E9DC7F
:101E3000DEDB019B8B42E5D8DAD1C845E2D8002031
:101E4000C845E4D2D4E70020002CE0D0DAE7114303
:101E500003D18445D6D10020D9E702204042D6E7FD
:101E60008445E6D0CEE7C046FF070000F0B55746F0
:101E70004E464546DE46E0B50D000F0304008046A1
:101E8000E80F390B844683B05800304F400D019164
:101E90001E03690082469146490D360BD80FB942A0
:101EA00020D0BA450FD000292BD101990C435146BF
:101EB000002937D1324338D0002C44D1002819D121
:101EC0000120404216E0164313D1002902D1019FA0
:101ED0002743F3D0844520D063460220013B1840BD
:101EE000013807E0019F274303D18A45F4D1164307
:101EF0001FD0022003B0F0BCBB46B246A946A046A4
:101F0000F0BD5446002CE7D08445E5D15145E3DCD3
:101F100003DB019BB342DFD80FD06346002BCFD049
:101F20006046E7E7002CC9D0D4E70020002CE1D0C0
:101F3000D2E78445D0D10020DCE7C845CCD80020CA
:101F4000C845D7D2E9E78445E3D0C5E7FF070000DD
:101F5000F0B55746DE464E464546E0B51F000B033A
:101F60001B0B16009A46CA0F4B000400934687B01D
:101F70005B0D00D1D5E0BB4A934200D1F8E0514659
:101F8000420FC9000A43802109041143C20091464F
:101F9000B54A8A469D180023984602933C037B006D
:101FA000FA0F3000240B5B0D009200D196E0AD4A91
:101FB000934231D0720FE40022438024240414435E
:101FC000A94AF000944663445B195A1C01924246A8
:101FD00000260A2A42DC5A4600994A409346424665
:101FE000022A32DC013A012A00D949E1022E00D14D
:101FF000CAE0012E3DD100230024002210005A46E1
:102000001B052343D2071343190007B0F0BCBB469E
:10201000B246A946A046F0BD924B2643EB18002ECF
:1020200000D1BBE00322414611435A46884600993D
:102030004A40802109018C462900614401914146B2
:102040000A2900DD33E293460326424601279740E2
:10205000A6213A00C9000A400F4231D0029E022E4A
:1020600000D135E2032E00D1D2E154464846012E7C
:10207000C1D0019A7D4B94466344002B00DCC0E044
:10208000420709D00F220240042A05D0021D8242D5
:102090008041404224181000E20106D5744B019A99
:1020A0001C4080239446DB006344724A93426BDCFD
:1020B0006207C00864025B050243240B5B0D9DE7C9
:1020C000902189000F4263D188223A4200D1D7E0A3
:1020D000009BA2469B4681460296BFE723003343FE
:1020E00000D17FE0002C00D1ADE1200000F010FF16
:1020F000020003000B3A1D201900821A3000083933
:10210000D0408C400443300088405B4AEB1A944630
:1021100063445A1C0192424600260A2A00DC5AE710
:102120009CE753460343994654D05346002B00D1B5
:1021300077E1504600F0ECFE0B235B429C46020028
:10214000844411005046083988401D23804660466B
:102150001B1A2000D8400300404603439A46230040
:102160008B4099460023444D9846AD1A029315E7DB
:1021700052460243914626D100221D000223924678
:1021800008329046029309E700240022354B35E7D8
:10219000002380249B462403324B2FE70222414632
:1021A00011438022120194462A006244884601921B
:1021B0000A2900DD52E75A460020009904004A40EF
:1021C000934602260BE70C221D000323814690460E
:1021D0000293E3E600239A4604339846033B002526
:1021E0000293DBE6424601331A432B0090465A1C09
:1021F000019242460024002001260A2A00DCEAE679
:102200002CE70122D21A382A00DDF4E61F2A00DC6E
:102210002AE11F214942CB1A2100D9400B00202A74
:1022200005D0164A019D94466544AC402043421EA9
:1022300090411843072319000024014003420CD0A9
:102240000F230340042B00D140E1031D8342A4412E
:102250001800644261076402240BC20800230A4389
:10226000CCE6C046FF07000001FCFFFFFF030000B3
:10227000FFFFFFFEFE0700000DFCFFFF3E04000015
:1022800049464A460904090C0D00160C020C0004CC
:10229000000C4543AC4605007543A84615000F00E9
:1022A0007543009202952A00009D6F4365462D0CF0
:1022B000A94647444F44B84505D91500802252022B
:1022C0009046454402953D0C039565462D043F0418
:1022D0002D0CAC463D0065440495250C2404240CCB
:1022E000AC4625007543A84665460F006943414446
:1022F00089466743390C49446E43884503D9802297
:102300005202904646440D0CA846350045440595BA
:10231000039D3F04A8463F0C0904C919884445465B
:10232000039555462E04360C2F0C35004543784353
:1023300081463800A8462D0CAA46009A50437243A5
:102340004A445244914503D980256D02A946484428
:10235000150CA94645462D042D0CA84665467D431F
:10236000120448449044A9463200654662436E43D5
:102370007C43170C3619BF19BC4203D98024640270
:10238000A446E144029C039EA446059D66448E42F9
:102390008941AC4612043C04120CA2186244494222
:1023A00054184644A4464645A44182466442A04689
:1023B000AA4292418C458941E244D044494252426A
:1023C0000A43A045A44182458941644249420C43E5
:1023D00041463F0CD2191219CC0D049970020843E2
:1023E000411E884141464A44F60D5202304349029B
:1023F00014430843D20135D5012243080240134358
:10240000E0071843640834E6009BA2469B468146D9
:102410008024534624031C4324034A462E4B240B9A
:10242000ECE500F075FD15239C46844402006346EC
:1024300020321C2B00DC84E6002399462300083858
:1024400083409A468EE600F063FD020003001532D9
:1024500020331C2A00DC4EE602003400083A00203B
:10246000944052E6019304E61C4B21009C46030075
:10247000019DD3406544A94019430300AB40581E59
:10248000834119430800D4404B0709D00F230B4068
:10249000042B05D00B1D8B428041404224181800AC
:1024A000230200D4D6E6012300240022A6E50F294A
:1024B000AAD1802352461B031A42A9D01C42A7D19D
:1024C0001C43009B02009B46034B97E50024C1E69A
:1024D0000024014B220091E5FF0700001E040000CC
:1024E000F0B54E464546DE465746E0B585B000900D
:1024F00001910C034F00CE0F610A009CB046640F9F
:102500000C4300997F0DC80011001A001B039C4664
:102510000091019251004B0D9946019B009DD90FEE
:1025200063466A0F5B0A1343EA0094469346C14A26
:1025300003900293914500D1CDE0012569404D46BD
:102540007D1BAA468E4200D180E0002D00DC35E3E1
:102550004946002900D1DFE0974200D194E152467C
:102560000125382A19DC8022029B120413430293AE
:1025700052461F2A00DDE3E1534620226146029DB8
:10258000D21A9540D9400D43614691400A00511E30
:102590008A411543029ADA40A41A451BA842804199
:1025A0004042241A230200D43DE16402640A002C54
:1025B00000D147E1200000F0ABFC0300083B2021E4
:1025C0002800CA1AD0409C4002009D4022439F42EE
:1025D00000DD77E1D81B0130091A2C008D40C44082
:1025E0006B1E9D411300C2408B4025430027140001
:1025F0001D436B0709D00F232B40042B05D02B1D47
:10260000AB42AD416D4264191D00230200D440E18C
:10261000884A0137974200D101E1012643468649A5
:10262000ED0821404A072A437C054D022D0B640D1D
:102630001E4024052C43F60734431000210005B04A
:10264000F0BCBB46B246A946A046F0BD002D00DC5A
:10265000D0E24946002900D0D4E06146029B1943EC
:1026600000D12BE1691E012D00D1D9E1954200D1A5
:102670000AE10125382917DC8A4653461F2B00DD65
:10268000E7E12022D21A029B614693401D00534687
:10269000D940634693401A000D43511E8A41534668
:1026A0001543029ADA40A4182D1885428041404211
:1026B0002418230200D4B6E05E4B01379F4200D1BC
:1026C000ADE001215C4B6A081C4029400A43E50744
:1026D000154364088DE7594A029B92466246BA4404
:1026E0001A432CD08E422ED05246002A60D0002FA2
:1026F00000D1DBE063460E00029CD808620702436B
:10270000E4081300234300D154E280252D03254320
:102710002D03484C2D0B8CE76146029B194300D1D9
:10272000CCE029000139012D00D188E1954200D18A
:10273000AAE00125382900DD2FE78A4618E70122A3
:1027400051408E42D0D15346002B00D1BEE0002F25
:1027500000D038E1CA462200024300D1E2E15346EC
:10276000591E012B00D10DE2324A924500D1D2E12F
:102770000127382913DC1F2900DDEEE12022029B0E
:10278000521A250007009A46CC4090409540CF4011
:10279000A244421E904153462F43074302933D00FB
:1027A000654465459241029B52424F46D41880E7EA
:1027B000234A7D1C154200D0AAE062462500029BF8
:1027C00005431A43002F00D0F5E0002D00D16BE146
:1027D000002A00D152E16346C51A029BE21AA842C0
:1027E0009B415B42D31A1A0200D4D5E163461D1AFD
:1027F000AC4592410126029B52421C1B8846A41AFA
:102800000E40F6E697423FD052460125382A00DDB9
:102810004AE78022029B1204134302932DE73C00F7
:102820000025002205E707232B40002B00D0E2E61D
:102830006BE0C046FF070000FFFF7FFF01F8FFFFCE
:10284000FE070000280000F063FB030018331F2B75
:1028500000DCB4E62A00083882409F4200DDB9E07F
:10286000DB1B581C1F2800DCA0E115001F3BDD40CE
:10287000202805D040231B1A9A40531E9A41154325
:10288000072300272B40D0E7C00862070243E40873
:1028900037E7EA0863071A43D34BE4089F4200D1A5
:1028A0002FE72403250B7C05640DC2E6CA462200EF
:1028B000024358D163460E00029C0393039B574684
:1028C000DA08E7E7C94CFF1A144092E6C84D7A1CB3
:1028D0002A4200D084E022000243002F00D0EFE023
:1028E000002A00D1E5E0624602990A4300D1C5E022
:1028F0006346C5188C468542804164444042241892
:10290000230202D5B94B01371C40BA460395D5E7DF
:102910006246851AA842924152429146029BE31AAE
:102920001A004B46D21A130091461A026CD44A463A
:102930004C462A4300D03AE600260024002578E6DB
:10294000029953460D00203AD540202B06D0402254
:10295000D21A0B00934062461A4393465B465A1EB6
:1029600093411D4319E653465A1E012B00D1C6E080
:102970009D4EB24500D1BDE688460E000125382A9D
:1029800010DC1F2A7FDC20212500891A07008840DF
:102990008D40D740D440411E8841029B3D431B1BC4
:1029A000054302936246551BAC459241029B52423D
:1029B0004F469C1AF6E5002D00D0B7E0002A00D162
:1029C000F0E001260E4063460298D90842070A4308
:1029D000C40896E6854CFF1A14406207E40860E7D5
:1029E00081498A4200D1C9E06346C11881428041D1
:1029F000029B4042E3181B18DD075C0807234908C7
:102A00000D4317002B4010E763461D1AAC45924159
:102A10000126029B52421C1B8846A41A0E40C6E5A2
:102A20006346C518029B854280419C4640426444EF
:102A300024180127230200D4F5E6022741E6634665
:102A4000C51AA8428041029B4042E41A0127241A79
:102A5000A8E5029D52462B00203AD3401900534668
:102A6000202B06D04022D21A2B00934062461A43F4
:102A700093465D466B1E9D410D4315E66207C008F7
:102A80000243E4080DE7110027002039CF40202A37
:102A900005D040218A1A9440250005430395039DE3
:102AA0006A1E95413D437DE7002A00D144E7012697
:102AB0000E406346D908029B5A070A43DC08F0E639
:102AC000002A28D06246029FC0083A4300D1DCE6C3
:102AD000620710438022E4081203144209D0FD0863
:102AE000154206D1634601262C00D8087B071843FF
:102AF0000E40420FC000C0085207024301E6634681
:102B00001D1AAC459241029B52421C1B0E00884686
:102B10000127A41A46E56346D908029B5A070A43CF
:102B2000DC08EEE56346029C0393C7E6C008002A72
:102B300000D1AAE6620710438022E408120314427F
:102B4000D7D0029FFD081542D3D163460126D8088D
:102B50007B072C0018430E40CBE70A002700203AE1
:102B6000D740202905D04022521A94402500054321
:102B70000395039D6A1E95412F4310E6140000251E
:102B8000002256E5029B60449946604592414C44C0
:102B900052420500A4184CE71A001C002A4300D03A
:102BA000B3E6C9E6802400262403AEE520210025F3
:102BB000091A17E5002200250B4C3AE5002D00D13B
:102BC000F6E54B46DA1B9246002F00D16FE6382A15
:102BD00005DC80263604344388460E00D1E688465C
:102BE0000E000125DEE6C046FF070000FFFF7FFF65
:102BF000FE070000002D00D168E64B46D91B002FD0
:102C000001D18A46A7E50127382900DDC7E58022E2
:102C100012041443AFE5C046F0B5C6461E03360B9A
:102C2000B0460D4E0C034D005F0000B5240B6D0D3A
:102C30007F0DB5420BD0084900208F4204D1464693
:102C400016433000431E984180BCB846F0BD044393
:102C50000120002CF8D1EEE7FF0700000B00020076
:102C600070B5164D0C0382B049000020009201930C
:102C7000240B490DDE0FA94204DD1148814203DD1A
:102C8000104BF01802B070BD8020400320430E4C62
:102C9000641A1F2C08DD0D4B5B1AD8400300584204
:102CA000002EEFD11800EDE7094B009A9C46030077
:102CB00061448B40E2401343F1E7C046FE0300004D
:102CC0001D040000FFFFFF7F330400001304000019
:102CD000EDFBFFFF70B5002816D0C317C5185D4087
:102CE000C40F280000F014F9104B1B1A5B055B0D94
:102CF0000A2814DC02002E00153296400B22121A0C
:102D0000D5402D032D0B03E00024002300250026D1
:102D10001B052B43E40723433000190070BD0B381B
:102D200085402D0300262D0BF2E7C0461E0400004F
:102D300010B5041E10D000F0EBF80E4B1B1A5B050B
:102D40005B0D0A280FDC0B222100121AD14015302E
:102D50000A038440120B01E0002300221B051343E9
:102D60002000190010BD22000B38824012030024FD
:102D7000120BF3E71E04000070B542024300C40FBB
:102D8000FE201B0E591C550A08420CD0E021890078
:102D90008C466D07120B63441B051343E407234362
:102DA0002800190070BD002B14D1002D1BD0280065
:102DB00000F0AEF80A281CDC0B232A001B1ADA40AC
:102DC000030015339D400E4B12031B1A5B05120BBB
:102DD0005B0DE1E7002D09D0130B802212031A438B
:102DE0006D07084BD8E700230022D5E70022054BEA
:102DF000D2E703002A000B3B9A400025E3E7C046D8
:102E000089030000FF070000F0B54B000F035B0DC6
:102E10003B4C450F83B07F0A5E1C2F43009001910D
:102E2000CA0FC50026420BD036495C18FE2C13DDB4
:102E3000FF200023C0051843D207104303B0F0BDA4
:102E4000002B02D100200023F4E73D43F0D0802383
:102E5000DB03FF203B43EDE7002C14DD009BFF006C
:102E60009B01581E8341690F3B430B43590741D0D7
:102E70000F211940042928D00433590125D50134E4
:102E80000023E0B2D6E721001731DBDB80211E20D2
:102E900009043943001B1F281BDD02267642341B20
:102EA0000E00E6403400202804D0174884466344CE
:102EB00099400D432B00591E8B412343590715D0D0
:102EC0000F2100241940042917D19B015B0AE0B2AD
:102ED000B0E70E4C1C192B00A540C340A140681E52
:102EE000854129430B4300245907C1D19B01002090
:102EF0005B0A9FE7DB08E0B29CE70433E5E7C046E6
:102F0000FE07000080FCFFFFA2FCFFFF82FCFFFF2A
:102F10001C2101231B04984201D3000C10391B0A09
:102F2000984201D3000A08391B09984201D30009CD
:102F3000043902A2105C40187047C0460403020224
:102F400001010101000000000000000010B500298F
:102F500003D1FFF7DDFF203002E00800FFF7D8FFC4
:102F600010BDC04680B500AFBFF34F8FC046044BC5
:102F7000044ADA60BFF34F8FC046C046FDE7C04643
:102F800000ED00E00400FA0580B500AF00F012F893
:102F900000F08EF800F0C0F800F02AF900F0B8F95F
:102FA00000F0CAFA00F03AFC00F0CAFCC046BD4688
:102FB00080BD000090B583B000AF3B1D00221A70A9
:102FC000BB1D08221A80BB1C00221A80334ABB1C7E
:102FD00012881A80BB1C1B88314A934207D1314B9F
:102FE00001221A70304B00221A70FA2351E0BB1CE8
:102FF0001B881B0A9BB2DAB22A4B1A70294B1B782A
:10300000002B02D1274B01221A70BB1C1B88DAB29D
:10301000254B1A707B1D01221A7032E07B1C0022A6
:103020001A7024E0BB1D1B881C4A94466344190097
:103030007B1D1B785A1E7B1C1B78DBB21C000B8887
:1030400098B21A4913009B009B185B009B181B1930
:103050005B00021C5A52BB1DBA1D128808321A802E
:103060007B1C1B78DBB20133DAB27B1C1A707B1C31
:103070001B78DBB20A2BD5D97B1D1A787B1D013258
:103080001A70084B1B787A1D12789A42C6D93B1DDC
:103090001B781800BD4603B090BDC04600A80708C5
:1030A000FFFF00007C0000202C130020240F0020D4
:1030B00080B582B000AFFB1D00221A70BB1D01223B
:1030C0001A7019E0BB1D1B789BB2013398B2BB1D6F
:1030D0001B78013B5A000E4BD31819000FF059FD15
:1030E000BB1D1B78192B02D9FB1D0A221A70BB1DB0
:1030F0001A78BB1D01321A70064B1B78BA1D127864
:103100009A42DFD9FB1D1B781800BD4602B080BD76
:10311000F81200207C00002090B583B000AFFB1CAB
:1031200000221A70BB1D00221A803B0000221A8068
:103130007B1D00221A704BE03B1D01221A7033E008
:10314000BB1D1B881C339BB23A00110018000FF006
:1031500020FD3B0018887B1D1A783B1D1978C4B2EE
:10316000214813009B009B185B00C318221C5A5473
:103170003B001B881B0A98B27B1D1A783B1D1B78ED
:10318000591EC4B2184813009B009B185B00C3185B
:10319000221C5A54BB1D1A88BB1D01321A803B1DCC
:1031A0003A1D127802321A703B1D1B78092BC7D9C1
:1031B0007B1D1A780C4913009B009B185B00CB18F1
:1031C000093300221A707B1D1A787B1D01321A7098
:1031D000064B1B787A1D12789A42ADD9FB1C1B78DE
:1031E0001800BD4603B090BD981100207C0000205F
:1031F00090B583B000AFFB1C00221A70BB1D0022EB
:103200001A803B0000221A807B1D00221A707B1D51
:1032100000221A7015E0BB1D1B88CB3398B27B1DB2
:103220001B785A00374BD31819000FF0B2FCBB1DA6
:103230001A88BB1D01321A807B1D1A787B1D013252
:103240001A70314B1B787A1D12789A42E3D37B1D9A
:1032500000221A704BE03B1D01221A7033E0BB1DA7
:103260001B8899339BB23A00110018000FF091FCB3
:103270003B0018887B1D1A783B1D1978C4B223487F
:1032800013009B009B185B00C318221C5A543B0080
:103290001B881B0A98B27B1D1A783B1D1B78591E90
:1032A000C4B21A4813009B009B185B00C318221C71
:1032B0005A54BB1D1A88BB1D01321A803B1D3A1D92
:1032C000127802321A703B1D1B78092BC7D97B1D5F
:1032D0001A780E4913009B009B185B00CB1809332A
:1032E00000221A707B1D1A787B1D01321A707B1D1B
:1032F0001B78092BAFD9FB1C1B781800BD4603B007
:1033000090BDC046C41200207C000020EC090020C3
:10331000B0B588B002AF0B23FB1800221A703B1D1A
:1033200000221A80BB1C00221A8008243B190022AC
:103330001A80BB1D00221A8017257B1900221A70E3
:1033400000233B610023FB603B1D1900E4200FF0CC
:1033500020FC03001A003B191A803B191B88002B24
:1033600003D13B1D1A887B191A703B1D1900E520FB
:103370000FF00FFC03001A0008243B191A80BB1C35
:103380001900E6200FF005FC03001A00BB1D1A808F
:103390003B191B88002B0AD1BB1D1B88002B06D1B3
:1033A0003B1D1B881B04BA1C12889B183B613B1DEC
:1033B0001900E7200FF0EDFB03001A0008243B1969
:1033C0001A80BB1C1900E8200FF0E3FB03001A0071
:1033D000BB1D1A803B191B88002B0AD1BB1D1B8803
:1033E000002B06D13B1D1B881B04BA1C12889B189E
:1033F000FB603B1D1900E9200FF0CBFB03001A0016
:1034000008217B181A807B181B88002B0BD13B1DD1
:103410001B881B0A9BB2DAB2414B1A703B1D1B88FA
:10342000DAB2404B1A703B1D1900EA200FF0B1FBD5
:1034300003001A0008217B181A807B181B88002BB8
:103440000BD13B1D1B881B0A9BB2DAB2364B1A709C
:103450003B1D1B88DAB2354B1A703B1D1900EB205F
:103460000FF097FB03001A0008217B181A807B18C5
:103470001B88002B0BD13B1D1B881B0A9BB2DAB2A9
:103480002B4B1A703B1D1B88DAB22A4B1A70244B47
:103490001B78002B11D0234B1B78002B0DD0204B19
:1034A0001D78204B1B78FC6839691722BA181078F0
:1034B00000932B00220007F0DBF91B4B1B78002B3D
:1034C00011D01A4B1B78002B0DD0174B1D78174BC2
:1034D0001B78FC6839691722BA18107800932B0002
:1034E000220007F0C5F9124B1B78002B11D0114BAD
:1034F0001B78002B0DD00E4B1D780E4B1B78FC68F3
:1035000039691722BA18107800932B00220007F0AF
:10351000AFF90B23FB181B781800BD4606B0B0BDF1
:10352000531300205413002055130020561300207D
:103530005713002058130020B0B584B000AF0F23FC
:10354000FB1800221A7008243A198A235B00110024
:1035500018000FF01EFB03001A000C217B181A80C4
:103560007B181B88002B24D13B191B881A1C0323B2
:103570001340DAB2A44B03210A4050011A786021AB
:103580008A43111C021C0A431A703B191B881B0A30
:103590009BB21A1C01231340DAB29B4B01210A4053
:1035A00090001A7804218A43111C021C0A431A70E5
:1035B0001FE0964B1B785B069B0FDAB2924B032100
:1035C0000A4050011A7860218A43111C021C0A43E8
:1035D0001A708E4B1B785B07DB0FDAB28A4B012126
:1035E0000A4090001A7804218A43111C021C0A43E5
:1035F0001A7008243A198E235B00110018000FF08E
:10360000C8FA03001A000C217B181A807B181B884B
:10361000002B11D13B191B881BB29BB2DB0BDAB21A
:10362000794B01210A40D0001A7808218A43111CE5
:10363000021C0A431A700FE0744B1B781B07DB0F48
:10364000DAB2714B01210A40D0001A7808218A436E
:10365000111C021C0A431A7008243A191623FF335E
:10366000110018000FF095FA03001A000C217B18C6
:103670001A807B181B88002B04D13B191A88644BD5
:103680001A8003E0634B1A88614B1A8008243A19A8
:103690008B235B00110018000FF07BFA03001A0067
:1036A0000C217B181A807B181B88002B04D13B1936
:1036B0001A88574B5A8003E0564B5A88544B5A800D
:1036C00008243A191823FF33110018000FF061FA8B
:1036D00003001A000C217B181A807B181B88002B12
:1036E0000CD13B191B88DAB2494B1A713B191B8864
:1036F0001B0A9BB2DAB2464B5A7107E0454B1A7966
:10370000434B1A71434B5A79414B5A7108243A1969
:103710008C235B00110018000FF03BFA03001A0025
:103720000C257B191A80BA1D1A23FF3311001800CB
:103730000FF02FFA03001A000A217B181A807B1958
:103740001B88002B0DD17B181B88002B09D13B193E
:103750001B881A00BB1D1B881B041A432C4B9A6044
:103760000CE02D4B1B78002B04D0294BE122520298
:103770009A6003E0274B9A68254B9A6008243A190F
:103780008D235B00110018000FF003FA03001A00EC
:103790000C217B181A807B181B88002B0CD13B193D
:1037A0001B88DAB21A4B1A733B191B881B0A9BB28F
:1037B000DAB2174B5A7305E0154B18225A73144BA3
:1037C00000221A7308243A191C23FF331100180031
:1037D0000FF0DFF903001A000C217B181A807B1808
:1037E0001B88002B05D13B191B88DAB2084B9A764F
:1037F00003E0084B9A7E064B9A760F23FB181B7842
:103800001800BD4604B0B0BD4C130020501300207A
:1038100030130020800000205213002080B582B0B9
:1038200000AFBB1D00221A703B0000221A803B1D16
:1038300000221A80FB1C00221A70FB1D00221A7045
:1038400071E0FB1D1B783B339BB29B009BB23A009F
:10385000110018000FF09DF903001A003B1D1A809B
:103860003B1D1B88002B59D13B001B881B0A9AB2B9
:10387000FB1C1A70FB1C1B781B09DBB21A00FB1D1A
:103880001B7801339A4249D1FB1C1B780F2213404D
:1038900044D0FB1D1B785A1CFB1C1B780F210B40CE
:1038A000D8B2264913005B009B18CB180133021CC9
:1038B0001A703B001988FB1D1B785A1CC8B21F499F
:1038C00013005B009B18CB180233021C1A70FB1DFF
:1038D0001B785A1C194913005B009B18CB18013345
:1038E0001A78FB1D1B780133DBB21900100010F0B1
:1038F0004DF8FB1D1B780133D8B2FB1D1B785A1CF9
:103900000E4913005B009B18CB1802331B78012271
:103910001340DBB20022190010F03AFAFB1D1A78AE
:10392000FB1D01321A70FB1D1B78062B89D9BB1DAC
:103930001B781800BD4602B080BDC046C02A0020DA
:1039400090B585B000AF0F23FB1800221A706F4BA3
:10395000BB6032201FF0D8FB03003B603B68002BAC
:1039600001D1FB23CEE0BB681B78FE2B01D0FF23E7
:10397000C8E0FB1D00221A70B8E00F23FB180022DC
:103980001A7010E0BB685A1CBA6019000F203B186F
:103990001B783A68D3180A78D2B21A703B181A7892
:1039A0003B1801321A700F243B191B78132BE9D9ED
:1039B000FB1D1A7813009B009B189B00544A981813
:1039C0003B6801331422190021F0B9F83B68142236
:1039D0000021180020F08BFF3B1900221A70BB68F1
:1039E0001433BB600FE0BA680F203B181B783968AE
:1039F000CB1812781A70BB680133BB603B183A18B9
:103A0000127801321A70BB681B78FE2B08D0BB6895
:103A10001B78FF2B04D00F23FB181B78312BE2D926
:103A20000F217B181B78013B3A68D3181B78002BB9
:103A300004D07B187A18127801321A700F23FB1801
:103A40001A78FB1D1C7810001FF05EFB03001900A4
:103A50002F4A23009B001B199B00D3180C331960BD
:103A6000FB1D1A782A4913009B009B189B00CB185A
:103A70000C331B68002B12D1FB1D1A7813009B001E
:103A80009B189B00224A9B1814220021180020F04A
:103A90002EFF3B6818001FF041FB0E2332E0FB1D98
:103AA0001A781B4913009B009B189B00CB180C3302
:103AB00018680F243B191A783B68190021F03FF869
:103AC000144B1B780133DAB2124B1A703B191A7877
:103AD0003B680021180020F00AFFBB681B78FE2B12
:103AE0000AD1FB1D1A78FB1D01321A70FB1D1B78D1
:103AF000042B00D841E700E0C0463B6818001FF0E7
:103B00000DFB00231800BD4605B090BD00B00708AE
:103B1000E01300208D0A002080B582B000AFFB1DAD
:103B200000221A70BB1D01221A7021E0BB1D1B78F8
:103B30005A1E154B5200D35A002B0DD0BB1D1B78BB
:103B40009BB2013398B2BB1D1B785A1E0E4B52001C
:103B5000D35A19000FF03EF8BB1D1B78192B02D960
:103B6000FB1D0A221A70BB1D1A78BB1D01321A7088
:103B7000064B1B78BA1D12789A42D7D9FB1D1B78C9
:103B80001800BD4602B080BDF81200207C00002065
:103B900090B583B000AFFB1C00221A70BB1D002241
:103BA0001A803B0000221A807B1D00221A7047E019
:103BB0007B1D1A78284913009B009B185B005B5CF7
:103BC000002B38D03B1D01221A7030E07B1D1A7883
:103BD0003B1D1B78591E204813009B009B185B005F
:103BE000C3185B5C1B0299B27B1D1A783B1D1878C9
:103BF000194C13009B009B185B00E3181B5C1A0018
:103C00003B008A181A80BB1D1B881C339AB23B00EC
:103C10001B88190010000EF0DDFFBB1D1A88BB1DAC
:103C200001321A803B1D3A1D127802321A703B1D78
:103C30001B78092BCAD97B1D1A787B1D01321A709B
:103C4000064B1B787A1D12789A42B1D9FB1C1B785F
:103C50001800BD4603B090BD981100207C000020E4
:103C6000F0B587B000AFB9607A6019000F243B1936
:103C7000021C1A700E257B190A1C1A701726BB1914
:103C800000221A703B191B789BB21900E4200EF039
:103C9000A1FFBB681B0A9BB21900E5200EF09AFF3A
:103CA000BB689BB21900E6200EF094FF7B681B0AEC
:103CB0009BB21900E7200EF08DFF7B689BB21900C4
:103CC000E8200EF087FF7B191B789BB21B029AB28B
:103CD000202310241B19DB191B789BB2D3189BB22D
:103CE0001900E9200EF076FF24231B19DB191B783D
:103CF0009BB21B029AB228231B19DB191B789BB2BB
:103D0000D3189BB21900EA200EF064FF2C231B1974
:103D1000DB191B789BB21B029AB230231B19DB19EB
:103D20001B789BB2D3189BB21900EB200EF052FF08
:103D3000BB191B781800BD4607B0F0BD80B582B036
:103D400000AFFB1D00221A70284B1A881623FF3380
:103D5000110018000EF03EFF244B5A888B235B00A5
:103D6000110018000EF036FF204B5B791B021AB2CF
:103D70001E4B1B7B1BB213431BB29AB21823FF339B
:103D8000110018000EF026FF184B9B689AB28C2386
:103D90005B00110018000EF01DFF144B9B681B0CFC
:103DA0009AB21A23FF33110018000EF013FF0F4BC5
:103DB0005B7B1B021AB20D4B1B791BB213431BB268
:103DC0009AB28D235B00110018000EF003FF074B21
:103DD0009B7E1A001C23FF33110018000EF0FAFE20
:103DE000FB1D1B781800BD4602B080BD30130020BB
:103DF00080B582B000AFFB1D00221A701B4B34222D
:103E00000021180020F073FDBB1D01221A7021E073
:103E1000BB1D1B785A1E154B5200D35A002B0DD0D8
:103E2000BB1D1B789BB2013398B2BB1D1B785A1E79
:103E30000E4B5200D35A19000EF0CCFEBB1D1B785E
:103E4000192B02D9FB1D0A221A70BB1D1A78BB1D43
:103E500001321A70064B1B78BA1D12789A42D7D9D4
:103E6000FB1D1B781800BD4602B080BDF812002073
:103E70007C000020B0B58EB002AF1423F8180A25DC
:103E80007A191823F9180823FB180093030001205E
:103E90000FF0D0F80C23F818BA1D1023F9183B1DA9
:103EA0000093030002200FF0C5F81C217B180122AB
:103EB0005A607B1800229A607B191B881A007B18B5
:103EC0001A60BB691A000C007B18190010001AF068
:103ED0009BFF21007B1800225A607B1802229A6007
:103EE0003B1D1B881A007B181A60FB681A007B18A0
:103EF000190010001AF088FFBB6918007B191B8895
:103F0000002219001BF009F9052011F039F9FB68AE
:103F10001A003B1D1B88190010001BF0E1F8031E5E
:103F200017D1BB6918007B191B88012219001BF0EF
:103F3000F4F8052011F024F9FB681A003B1D1B88DA
:103F4000190010001BF0CCF80300012B01D1012354
:103F500000E000231800BD460CB0B0BD90B585B0A0
:103F600000AF78600F23FB1800221A701CE00F24AA
:103F70003B191A78114913005B009B189B00CB1862
:103F800008331A687B6811001800FCF7BDF8031E9F
:103F900004D13B191B780133DBB20BE00F217B18F6
:103FA0001A787B1801321A700F23FB181B78002B2C
:103FB000DDD000231800BD4605B090BD7829002053
:103FC00080B584B000AF78600F23FB1800221A7010
:103FD00041E0264A7B6811001800FCF795F8031EA3
:103FE00001D101233DE0224A7B6811001800FCF753
:103FF0008BF8031E01D1022333E01E4A7B681100B7
:104000001800FCF781F8031E01D1032329E01A4AA6
:104010007B6811001800FCF777F8031E01D1042318
:104020001FE0164A7B6811001800FCF76DF8031EAC
:1040300001D1052315E0124A7B6811001800FCF736
:1040400063F8031E01D106230BE00F217B181A78B9
:104050007B1801321A700F23FB181B78052BB8D977
:1040600000231800BD4604B080BDC046E09B020896
:10407000E49B0208E89B0208EC9B0208F09B020804
:10408000F49B020880B582B000AF10F03FFD10F045
:1040900039FF0EF053FD0EF009FE0EF00BFA10F092
:1040A000D5FF0EF055FC11F00BF80EF015FF031EB6
:1040B00003D00EF0E5FDFEF755FFFFF7DBFE031E14
:1040C00021D03D4B01221A70322011F059F80DF029
:1040D0000FFA3A4BE12252029A60FB1D01221A703C
:1040E0000CE0364B9A68FB1D1B781100180011F08C
:1040F0004DFDFB1D1A78FB1D01321A70FB1D1B784C
:10410000062BEED904E0322011F03AF80DF0F0F968
:10411000FEF73AFF11F0A8FE0EF006FA284B1B78C6
:10412000002B15D180231901A023DB0501221800E3
:104130001AF0F3FFFA235B00180011F021F8802336
:104140001901A023DB05002218001AF0E6FF2AE07F
:1041500080231901A023DB05012218001AF0DDFFDE
:10416000FA235B00180011F00BF880231901A0233B
:10417000DB05002218001AF0D0FF642011F000F8CF
:1041800080231901A023DB05012218001AF0C5FFC6
:10419000642010F0F5FF80231901A023DB05002225
:1041A00018001AF0BAFF06F01BF9064B01221A702C
:1041B000C046BD4602B080BD52130020301300201F
:1041C0002C1300208B0A002080B500AF18F0E4FD0E
:1041D0000CF07BFDFFF756FF06F02CF915F01AFBEB
:1041E000C046BD4680BD0000F0B587B002AF0F23CA
:1041F000FB1800221A700E23FB1800221A700D23E0
:10420000FB1800221A70BB1D00221A707B1D0022B1
:104210001A700C23FB1800221A700B23FB180022C3
:104220001A700A23FB1800221A700923FB180022B7
:104230001A70BB1C00221A80D24B01221A70D24B7A
:104240001A78D24B1A700823FB1801221A7016E054
:10425000CE4B1B7808217A1812789A4209D07B1825
:104260001B78180011F0B2FC03000121180011F0B6
:10427000DBFC08217B181A787B1801321A7008239E
:10428000FB181B78062BE3D9C04B1B78180000F0F5
:1042900083FCBF4B02221A70322015F0C3FA0E23A2
:1042A000FB1801221A700923FB1801221A7041E041
:1042B00009217B181B785A1EB64B9200D35A002B4B
:1042C00032D00E243B193A19127801321A70B24BCF
:1042D0003A1912785A70B14B3A1912781A70AE4BDB
:1042E00000221A700D007B18187803230093102306
:1042F0000022002106F0E4FE3B191B789BB21B0252
:104300009BB27A191278511EA24A89008A5AD2B2F7
:1043100011007A191278013A5B1899B29D4B9200FC
:10432000D152322015F07EFA09217B181A787B18B9
:1043300001321A7009217B181B78062BB8D9984BCB
:104340001A88984B1A807B1801221A705CE00924A5
:104350003B191B785A1E8F4B9200D35A002B4DD01D
:104360003B191B78591EBB1C8A4A89008A5A1A803D
:10437000BB1C1B881B0A9AB2BB1D1A703B191B7809
:104380005A1E844B9200D25A7B1D1A70BB1D1B789B
:10439000DB001AB27B1D1B781BB2134319B23B1909
:1043A0001A7889B27F4B5200D1523B191B78013BDE
:1043B000BA1D1278013A77499B00CB18023318884E
:1043C000784B16214A43011CD1526E4B1B78DB00FF
:1043D0001AB23B191B781BB2134319B2BB1D1B78D1
:1043E0005A1E7B1D18788CB26E4913009B009B18D7
:1043F0005B009B181B185B00221C5A5209217B187A
:104400001A787B1801321A700923FB181B78062BC7
:104410009DD90C23FB1802221A7017E00E23FB18FB
:104420001B789BB21622534399B25E4A0C243B1967
:1044300018780B00112106F0BDFD0A2015F0F2F9E5
:1044400021007B181A787B1801321A700C23FA1895
:104450000E23FB1812781B789A42DFD979E10C23DE
:10446000FB1802221A7066E1FB1D01221A700AE095
:10447000FB1D1B78013B484A0121D154FB1D1A78D2
:10448000FB1D01321A70FB1D1B780A2BF0D9424B21
:1044900000229A720C243B191B780B220E21180063
:1044A00006F036FD322015F0BDF93B191B780022CD
:1044B0000C21180006F02CFD96235B00180015F067
:1044C000B1F90B23FB1801221A7051E00B203B18A5
:1044D0001B78591EBB1C344A89008A5A1A80BB1C9F
:1044E0001B881B0A9AB2BB1D1A70BB1C1B88002BB1
:1044F00038D0BB1D1B78002B34D10E217B187A18C5
:10450000127801321A70244B7A1812785A70234BA1
:104510007A1812781A707B181B789BB21B029BB218
:104520003A181278511E204A89008A5AD2B21100D4
:104530003A181278013A5B1899B21B4B9200D1528B
:10454000154B01221A70144B3A1812789A700C23EA
:10455000FB181B7803221021180006F0D9FC32202A
:1045600015F060F90B217B181A787B1801321A704C
:104570000B22BB181B780A2BA8D9BB1801221A7072
:10458000A3E0C0462C13002051130020880A00200D
:104590008A0A0020200E0020F00B00207C00002062
:1045A0007A000020240F0020380E00200B243B1935
:1045B0001B785A1EE04B9200D35A002B00D17EE0AC
:1045C0003B191B78591EBB1CDB4A89008A5A1A808A
:1045D000BB1C1B881B0A9AB2BB1D1A703B191B78A7
:1045E0005A1ED54B9200D25A7B1D1A70BB1D1B78E8
:1045F000012B64D00C257B191B785A1E3B191878A7
:10460000CE4913009B009B185B009B181B185B0096
:104610005B5A002B18D1BB1D1B78DB001AB27B1D27
:104620001B781BB2134319B27B191B785A1E3B1916
:1046300018788CB2C14913009B009B185B009B1833
:104640001B185B00221C5A52BB1D1B785A1E7B1D77
:104650001878BA4913009B009B185B009B181B1825
:104660005B005B5A002B2AD10B243B191B78013BC2
:10467000BA1D1278013AB0499B00CB180233188852
:10468000AE4B16214A43011CD1520C23FB181B7858
:10469000DB001AB23B191B781BB2134319B2BB1DC6
:1046A0001B785A1E7B1D18788CB2A44913009B00FE
:1046B0009B185B009B181B185B00221C5A520B2195
:1046C0007B181A787B1801321A700B243B191B785F
:1046D0000A2B00D86AE7984B18220021180020F016
:1046E00006F93B1902221A7017E00E23FB181B78FB
:1046F0009BB21622534399B2904A0B243B19187867
:104700000B00112106F056FC642015F08BF82100F7
:104710007B181A787B1801321A700B23FA180E23B3
:10472000FB1812781B789A42DFD90C217B181A7873
:104730007B1801321A700C23FA180E217B1812789C
:104740001B789A4200D88FE60D23FB187A1812784E
:104750001A700D23FA180E23FB1812781B789A4250
:1047600000D07CE6764B1A78764B1A70754B1B7826
:10477000180000F011FA322015F054F80C23FB1841
:1047800001221A7020E00C23FB181B78591EBB1C59
:104790006D4A89008A5A1A80BB1C1B881B0A9AB270
:1047A000BB1D1A70BB1C1B88002B07D0BB1D1B78C0
:1047B000002B03D10F23FB1805221A700C217B1844
:1047C0001A787B1801321A700C22BB181B78062B42
:1047D000D9D9BB1802221A703DE00C23FB181B78B4
:1047E00000220C21180006F093FB96235B001800B2
:1047F00015F018F80B23FB1801221A7020E00B2388
:10480000FB181B78591EBB1C4B4A89008A5A1A8018
:10481000BB1C1B881B0A9AB2BB1D1A70BB1C1B88D1
:10482000002B07D0BB1D1B78002B03D10F23FB18D7
:1048300005221A700B217B181A787B1801321A7026
:104840000B23FB181B780A2BD9D90C217B181A785B
:104850007B1801321A700C23FA180E23FB181278F9
:104860001B789A42B9D90F23FB181B78002B00D074
:1048700052E10923FB1801221A7017E0334B1B8801
:104880001BB209203A181278013A8021090211411D
:104890000A0012B2D24312B213401BB29AB22B4B8F
:1048A0001A803B181A783B1801321A700923FB183A
:1048B0001B78062BE2D90C23FB180E22BA181278AB
:1048C0001A7002E10A23FB1801221A70B8E00C24C6
:1048D0003B191B785A1E0A257B19187817491300B3
:1048E0009B009B185B009B181B185B005B5A002BFE
:1048F00030D17B191B78013B154A0021D15420008F
:104900003B181B785A1E114B5200D35A1BB27A190E
:104910001278013A8021090211410A0012B2D243F1
:1049200012B2134019B23B181B785A1E89B2074BBA
:104930005200D1527EE0C046380E0020240F0020E5
:1049400051130020880A0020200E0020F8120020B9
:10495000F00B00200C257B191B785A1E0A26BB1968
:104960001C78B91C854813009B009B185B009B18A2
:104970001B195B001B5A0B80BB1C1B88DB089AB2FF
:10498000BB1D1A70BB1C1B88DAB27B1D07210A40B5
:104990001A70BB1D1B785A1E794B5200D35A19004E
:1049A0007B1D1B78013B802212021A4113000B4031
:1049B0001ED1BB191B78013B724A0121D1547B19CE
:1049C0001B785A1E6E4B5200D35A1AB2BB191B7871
:1049D000013B8021090219410B001BB2134319B29C
:1049E0007B191B785A1E89B2654B5200D15221E0C7
:1049F0000A203B181B78013B624A0021D1540C2449
:104A00003B191B785A1E5E4B5200D35A1BB23A1800
:104A10001278013A8021090211410A0012B2D243F0
:104A200012B2134019B23B191B785A1E89B2544B6B
:104A30005200D1520A217B181A787B1801321A7061
:104A40000A23FB181B780A2B00D840E70C243B19DB
:104A50001B781900012000F0BFFA20003B181B78DA
:104A6000013B494AD35C5A1EBB1D48498A5C1A70F7
:104A70007C1DBB1D1A7805003B181B78110018001F
:104A800000F0AAFA03002370BA1D7B1912781B7874
:104A90009A4206D07B1D1B78013B3A4AD35C012B1E
:104AA00002D1384B01229A720C243B191B780B223D
:104AB0000E21180006F02CFA0A2014F0B3FE210093
:104AC0007B181A787B18013A1A700C23FB181B7894
:104AD000012B00D9F6E60923FB1801221A7016E013
:104AE0002B4B1B7809217A1812789A4209D07B182F
:104AF0001B78180011F06AF803000021180011F06B
:104B000093F809217B181A787B1801321A7009234F
:104B1000FB181B78062BE3D90F23FB181B78002BFF
:104B200025D10C23FB1802221A7019E00C243B1922
:104B30001B7800220121180006F0EAF93B191B78C6
:104B4000013B114AD35C1A0013009B009B185B00C9
:104B5000180014F067FE3B191A783B1901321A70DD
:104B60000C4B1B780C22BA1812789A42DED90F230C
:104B7000FB181B781800BD4605B0F0BD240F0020BF
:104B8000F8120020F00B002060110020841C00208F
:104B9000880A00207C00002080B586B002AF0200A9
:104BA000FB1D1A700E23FB1800221A700F23FB182E
:104BB00001221A7028E00F217A18FB1D12781B7849
:104BC0009A421BD0164B1B881B0A9BB2DAB2154BBC
:104BD0001A70134B1B88DAB2124B5A70114B7A18A9
:104BE00012789A707B181878032300930A23002206
:104BF000002106F065FA052014F014FE0F217B1841
:104C00001A787B1801321A700F23FB181B78062BB9
:104C1000D1D90E23FB181B781800BD4604B080BD07
:104C20007A000020F00B0020F0B58DB000AF1F23FC
:104C3000F918087069460E0013211823CB18D919EA
:104C40000020087017211823CB18D91900200870EC
:104C500016211823CB18D919002008701520182305
:104C6000C318D9190020087014201823C318D919A3
:104C700000200870D5490978080001387862396148
:104C8000002078613A697B691000400F3A617B61CE
:104C9000DD0005433B69DC003960002078603C683A
:104CA0007D682300580F2B00DB00FB60FB6803438B
:104CB000FB602300DB00BB600B000733DB08DB007D
:104CC0006A46D31A9D466B4600333B621621182371
:104CD000CB18DB1900221A7018E016201823C3180D
:104CE000DB191B783A6A0021D1541823C318DB1949
:104CF0001A78B74B52000021D1521823C318DB1980
:104D00001A781823C318DB1901321A70AF4B1B78BD
:104D1000162218215218D21912789A42DDD3152181
:104D20001823CB18DB1918228A18D21912780132ED
:104D30001A701F23FB181B78013B3A6A08001824DD
:104D40000919C9190978D1541823C318DB19182275
:104D50008218D219127801321A70172318229B1860
:104D6000DB1901221A7054E01F23FB181B785A1E0E
:104D700017241823E318DB191878964913009B00B1
:104D80009B185B009B181B185B005B5A002B36D0EE
:104D90001F23FB181B785A1E8D4B5200D35A1AB290
:104DA00020001823C318DB191B78013B012199400F
:104DB0000B001BB2134319B21F23FB181B785A1E9A
:104DC00089B2834B5200D1521F23FB181B785A1E05
:104DD0001823C318DB1918787E4913009B009B1811
:104DE0005B009B181B185B005B5ADB089BB2013B06
:104DF0003A6A152118200918C9190978D1541721C0
:104E00001823CB18DB191A781823CB18DB190132B9
:104E10001A70172318229B18DB191B78062BA3D9AD
:104E2000142318229B18DB1900221A70152218234C
:104E3000D318DB1918215218D219127801321A70BE
:104E4000162318229B18DB1900221A70A2E01623E1
:104E500018229B18DB191B783A6AD35C1A001523B9
:104E600018215B18DB191B78013B9A4200D087E0C0
:104E7000172318229B18DB1901221A7078E01624D8
:104E80001823E318DB191A7817251823EB18DB19F8
:104E90001878504913009B009B185B009B181B1847
:104EA0005B005B5A002B59D01823E318DB191A78E2
:104EB0001823EB18DB191878464913009B009B1840
:104EC0005B009B181B185B005B5ADB089BB2013B25
:104ED0003A6AD35C002B41D120001823C318DB1998
:104EE0001A783B4B5200D35A1AB22C001823E318FD
:104EF000DB191B78013B012199400B001BB21343C6
:104F000019B21823C318DB191A7889B2304B520032
:104F1000D1521823C318DB191A781823E318DB19A8
:104F200018782C4913009B009B185B009B181B18DA
:104F30005B005B5ADB089BB2013B3A6A15211820E3
:104F40000918C9190978D15414221823D318DB1968
:104F500018215218D219127801321A701721182309
:104F6000CB18DB191A781823CB18DB1901321A7009
:104F7000172318229B18DB191B78062B00D87EE715
:104F800016211823CB18DB191A781823CB18DB1934
:104F900001321A700D4B1B78162218215218D219A3
:104FA00012789A4200D252E7142318229B18DB1978
:104FB0001B78002B00D033E7132318229B18DB1932
:104FC0001B78B5461800BD460DB0F0BD7C00002032
:104FD000500E0020240F0020B0B594B000AF0200A6
:104FE000FB1D1A70BB1D0A1C1A700823FB18002237
:104FF0001A6004332E22002118001FF078FC3B2396
:10500000FB1800221A704F23FB1800221A703A2353
:10501000FB1800221A704E23FB1800221A709F4BB7
:105020001A22002118001FF062FCFB1D1B78013BB7
:105030009B4A0021D154FB1D1B78013B994A00215A
:10504000D1540123BB6432E0FB1D1B785A1E9649E4
:1050500013009B009B185B009B18BA6C9B185B00AD
:105060005B5A002B20D0FB1D1B785A1E8E49130063
:105070009B009B185B009B18BA6C9B185B005B5AEB
:10508000DB089AB2BB1D1B789BB29A420CD1BB1DA8
:105090001B78013B824A0121D154804BBA1D127802
:1050A0001A70BB6CDBB2F5E0BB6C0133BB64BB6C4C
:1050B000062BC9DD01237B6411E0FB1D1B787A6C94
:1050C0009A4209D07B6C013B754AFF21D1547B6C1D
:1050D000013B744A0021D1547B6C01337B64734BD8
:1050E0001B781A007B6C9342E7DD77E008243A19BD
:1050F0006B4B1100180000F0DBF803001A004F2181
:105100007B1801321A707A18BB1D12781B789A42EC
:105110006DD07B181B78013B3A190121D1544323F0
:10512000FB1801221A7054E04F243B191B785A1EB9
:1051300043257B1918785C4913009B009B185B0082
:105140009B181B185B005B5A002B3CD03B191B784B
:105150005A1E7B191878544913009B009B185B005A
:105160009B181B185B005B5ADB089AB23A217B182C
:105170001A707B181B78013B0822BA18D35C002BED
:1051800021D13B191B78013B454AD25C3B203B189F
:1051900001321A707B181B78013B414AD35C050031
:1051A0003A1812789A420ED208007B181B78013BFD
:1051B0003B4A79190978D1543B181B78013B394A8D
:1051C00039190978D15443217B181A787B18013298
:1051D0001A704323FB181B78062BA5D90823FB184C
:1051E000180000F0A9F8031E00D17FE700E0C046D8
:1051F00013E04E22BB181B78BA18591C1170190005
:10520000264B4F203A1812785A5401007B181B780D
:105210005A1E7B1823498A5C1A704F23FB181B788F
:10522000013B204AD35C002BE3D10123FB632DE03B
:10523000FB1D1B785A1E1C4913009B009B185B002A
:105240009B18FA6B9B185B005B5A002B1BD0FB1D55
:105250001B785A1E144913009B009B185B009B1877
:10526000FA6B9B185B005B5ADB089BB2BA1D127885
:10527000013A0B498A5C013A08498A5C934202D19F
:10528000FB6BDBB206E0FB6B0133FB63FB6B062BB6
:10529000CEDD00231800BD4614B0B0BD841C002034
:1052A000601100207C110020240F00207C000020D1
:1052B00080B584B000AF786039600F217B18FF2281
:1052C0001A700E23FB1800221A703B681B78002B03
:1052D00003D17B187A6812781A700023BB601BE038
:1052E000BB687A68D3181B780F217A1812789A4213
:1052F0000FD9BB683A68D3181B78002B09D1BB685B
:105300007A68D2187B1812781A700E23FB18BA68C4
:105310001A70BB680133BB60064B1B781A00BB6870
:105320009342DDDB0E23FB181B781800BD4604B04A
:1053300080BDC0467C00002080B584B000AF78609E
:105340000F23FB1801221A700023BB600CE0BB681E
:105350007A68D3181A780F217B18791809780A40CF
:105360001A70BB680133BB60064B1B781A00BB6820
:105370009342ECDB0F23FB181B781800BD4604B0EA
:1053800080BDC0467C000020F0B587B002AF0200AF
:10539000FB1D1A70854A864B110018001FF028FA71
:1053A000834B1800FAF7BAFE03009AB28049FB1D3E
:1053B000187801235B420093322310F051FB0F2336
:1053C000FB1801221A701BE00F243B191A78794947
:1053D000774B18001FF00CFA754B1800FAF79EFE79
:1053E00003009AB27249FB1D187801235B420093B7
:1053F000322310F035FB3B191A783B1901321A7031
:105400000F23FB181B78062BDED96B49FB1D187880
:1054100001235B4200933223032210F021FB0E2371
:10542000FB1800221A70ABE00E243B191B785A1CA3
:1054300062495F4B18001FF0DBF95D4B1800FAF76B
:105440006DFE03009AB25A49FB1D187801235B4296
:105450000093322310F004FB3B191A78584B1621A5
:105460004A43D35A1A0013005B009B185B00554A4D
:1054700099184F4B052218001FF06DFA4C49FB1D7F
:10548000187801235B4200933223052210F0E8FADA
:105490004D49FB1D187801235B4200933223012202
:1054A00010F0DEFA0D23FB1801221A7053E00E23D0
:1054B000FB181A780D23FB181878414913009B003C
:1054C0009B185B009B181B185B005B5A002B06D1D6
:1054D0003E49374B002218001FF08AF926E00E25BE
:1054E0007B191A780D26BB191878354913009B00D3
:1054F0009B185B009B181B185B005B5ADB089BB278
:105500001C007B191A78BB1918782D4913009B00D1
:105510009B185B009B181B185B005B5A1A00072343
:1055200013402B49224822001FF062F9204B18003B
:10553000FAF7F4FD03009AB21D49FB1D1878012308
:105540005B420093322310F08BFA0D217B181A78FE
:105550007B1801321A700D23FB181B78062BA6D975
:105560001C49FB1D187801235B4200933223022261
:1055700010F076FA0E217B181A787B1801321A7017
:10558000154B1B780E22BA1812789A4200D24BE7BC
:105590001249FB1D187801235B420093322301223C
:1055A00010F05EFAC046BD4605B0F0BDF89B02089B
:1055B000980900200C9C0208149C0208189C020800
:1055C000240F002010960208249C0208289C020840
:1055D0002C9C0208349C02087C000020389C0208A5
:1055E00090B587B002AF0200FB1D1A703C4A3D4BDC
:1055F000110018001FF0FCF83A4B1800FAF78EFD66
:1056000003009AB23749FB1D187801235B420093CF
:10561000322310F025FA0F23FB1801221A703EE006
:105620000E23FB1801221A702EE00F203B181B7866
:105630005A1E2D4B5200D35A19000E243B191B78C9
:10564000013B802212021A4113000B4016D03B1876
:105650001A783B191B78254922481FF0C9F8214BBD
:105660001800FAF75BFD03009AB21E49FB1D18787B
:1056700001235B420093322310F0F2F90E217B18D4
:105680001A787B1801321A700E23FB181B780A2B2C
:10569000CBD90F217B181A787B1801321A70144B62
:1056A0001B780F22BA1812789A42B9D9114A0D4BB9
:1056B000110018001FF09CF80A4B1800FAF72EFD95
:1056C00003009AB20749FB1D187801235B4200933F
:1056D000322310F0C5F9C046BD4605B090BDC046A6
:1056E0003C9C020898090020F8120020589C0208EF
:1056F0007C0000206C9C0208F0B589B002AF02006B
:10570000FB1D1A701223FB1800221A8014F002FAF3
:105710000300FB60FB6800221A70C74B1B781A005D
:10572000C649C74B18001FF063F8C54AFB68110053
:1057300018001FF0E4F8C34B1B781A00C249C04B95
:1057400018001FF055F8BE4AFB68110018001FF042
:10575000D6F8BE49BA4800230093042300221FF064
:1057600047F8B74AFB68110018001FF0C8F8B84A9C
:10577000B849B34B18001FF03BF8B14AFB68110061
:1057800018001FF0BCF8B44AB449AD4B18001FF024
:105790002FF8AB4AFB68110018001FF0B0F8B04AB0
:1057A000A74B110018001FF023F8A54AFB68110051
:1057B00018001FF0A4F81723FB1801221A7048E004
:1057C00017243B191A78A7499D4B18001FF010F8B1
:1057D0009B4AFB68110018001FF091F83B191B78D9
:1057E000A14AD35C042B27D89A00A04BD3181B687E
:1057F0009F469F4A924B110018001EF0F9FF1CE0D3
:105800009C4A8F4B110018001EF0F2FF15E09A4AD7
:105810008B4B110018001EF0EBFF0EE0974A884BEF
:10582000110018001EF0E4FF07E0954A844B1100B8
:1058300018001EF0DDFF00E0C046814AFB68110041
:1058400018001FF05CF817217B181A787B180132BA
:105850001A701723FB181B78062BB1D9894A784B8D
:10586000110018001EF0C4FF754AFB6811001800F3
:105870001FF045F81623FB1801221A7043E0162189
:105880007B181B785A1E804B9200D3581B68002B44
:105890000DD17B181A787D49694B18001EF0A8FFBE
:1058A000674AFB68110018001FF029F825E016264A
:1058B000BB191C78BB191B785A1E734B9200D35826
:1058C0009B6A18000BF0C4FF03001D00BB191B7876
:1058D0005A1E6F4B9200D35818000BF0B9FF03000B
:1058E0006C49574800932B0022001EF081FF544A58
:1058F000FB68110018001FF002F816217B181A78B7
:105900007B1801321A701623FB181B78062BB6D9A8
:10591000FB681800FAF702FC03001A00FB689A18EB
:105920005D4B1000190003231A001FF008F9FB68F3
:105930001800FAF7F3FB03001A00FB689A18574B9C
:10594000100019001D231A001FF0F9F8FB68180059
:10595000FAF7E4FB02001223FB181A801523FB1848
:1059600001221A7023E0344B1B785A1E4C4B520014
:10597000D35A190015203B181B78013B80221202D4
:105980001A4113000B400CD03B181A7845492C4B98
:1059900018001EF02DFF2A4AFB68110018001EF0A7
:1059A000AEFF15217B181A787B1801321A70152367
:1059B000FB181B78062BD6D91223FB181C88FB6812
:1059C0001800FAF7ABFB03009C420ED1FB681800ED
:1059D000FAF7A4FB03001A00FB689A18324B100078
:1059E000190005231A001FF0AAF8FB681800FAF73F
:1059F00095FB03001A00FB689A18274B100019004A
:105A000003231A001FF09BF8FB1D1B78002B0ED000
:105A1000FB681800FAF782FB03009AB2F968FB1DD5
:105A2000187801235B420093322310F019F8C04626
:105A3000BD4607B0F0BDC0462C1300208C9C020868
:105A400098090020880A0020A89C0208C49C02082B
:105A5000E49C0208F09C0208089D0208149D0208BC
:105A6000309D0208449D0208980A0020489E0208C2
:105A70004C9D0208549D02086C9D0208789D020806
:105A8000949D0208B49D0208F0290020CC9D0208D4
:105A9000D01A0020E89D0208349C0208189E0208D3
:105AA000F8120020389E0208409E020890B585B08A
:105AB00000AF78600E23FB1800221A700F23FB182A
:105AC00000221A704A4A7B6811001800FAF71CFB82
:105AD000031E03D1474B1B781BB285E0464A7B6807
